:020000041004E6
:1000000000000120957B0410F5370410FB37041025
:1000100000000000000000000000000000000000E0
:100020000000000000000000000000000138041083
:1000300000000000000000000B3804101538041008
:10004000F97B0410F97B0410F97B0410F97B041090
:10005000000000000000000000000000F97B041018
:100060002538041061380410F97B0410F97B041062
:10007000F97B04107938041000000000C93804101E
:10008000E1380410F97B0410AD38041000000000C2
:100090009F38041000000000000000009138041098
:1000A000F97B0410BB380410F97B0410F97B0410B1
:1000B000F97B0410000000000000000000000000B8
:1000C00010B5904216D98AB2030C090C0C4659435C
:1000D00080B25343444350431B191A041B0C10189D
:1000E000594180225203002312184B41520DD8026D
:1000F000104310BD4843802252031218520D10467F
:1001000010BDC0468B0707D0013A22D30B780131CE
:10011000037001308B07F7D1830730D0DB4219D051
:100120000138043A08D308C943701B0A43801B0CEA
:1001300003710430043AF6D2D20707D30B88437018
:1001400001D08A78C2701B0A8370704701D00B7887
:1001500043707047043A06D308C903801B0C4380E0
:100160000430043AF8D2D20705D30B88038005D0B7
:100170008B788370704701D00B780370704770B430
:10018000103A03D378C978C0103AFBD2530701D391
:1001900018C918C001D508C908C0D20704D30B88F4
:1001A000038002300231002A01D50B78037070BC45
:1001B0007047C046EFF31482EFF30981154880F3CE
:1001C0001488BFF36F8FF0B543464C4655465E46E4
:1001D0006746F8B4104CEFF30883636006B4BFF3CE
:1001E0004F8F30BFC046C0460B4C646884F308880C
:1001F00082B003BCF8BC9846A146AA46B346BC46AA
:10020000F0BC04BC80F3098881F31488BFF36F8FBE
:100210001047C046000000000400002002780B7860
:10022000002A03D0013001319A42F7D0D01A70472A
:100230000023C25C0133002AFBD1581E7047000026
:1002400002B4714649084900095C49008E4402BC69
:100250007047C04603B47146490840004900095E32
:1002600049008E4403BC7047002243088B4274D37C
:1002700003098B425FD3030A8B4244D3030B8B42A7
:1002800028D3030C8B420DD3FF22090212BA030CB0
:100290008B4202D31212090265D0030B8B4219D391
:1002A00000E0090AC30B8B4201D3CB03C01A5241B1
:1002B000830B8B4201D38B03C01A5241430B8B42F9
:1002C00001D34B03C01A5241030B8B4201D30B03E2
:1002D000C01A5241C30A8B4201D3CB02C01A524109
:1002E000830A8B4201D38B02C01A5241430A8B42CC
:1002F00001D34B02C01A5241030A8B4201D30B02B5
:10030000C01A5241CDD2C3098B4201D3CB01C01ACE
:10031000524183098B4201D38B01C01A52414309D8
:100320008B4201D34B01C01A524103098B4201D3C6
:100330000B01C01A5241C3088B4201D3CB00C01A33
:10034000524183088B4201D38B00C01A52414308AB
:100350008B4201D34B00C01A5241411A00D20146D0
:10036000524110467047FFE701B5002000F0F0F859
:1003700002BDC0460029F7D076E7704703460B431D
:100380007FD4002243088B4274D303098B425FD38E
:10039000030A8B4244D3030B8B4228D3030C8B42BA
:1003A0000DD3FF22090212BA030C8B4202D31212A0
:1003B000090265D0030B8B4219D300E0090AC30B75
:1003C0008B4201D3CB03C01A5241830B8B4201D322
:1003D0008B03C01A5241430B8B4201D34B03C01A0B
:1003E0005241030B8B4201D30B03C01A5241C30A83
:1003F0008B4201D3CB02C01A5241830A8B4201D3F4
:100400008B02C01A5241430A8B4201D34B02C01ADD
:100410005241030A8B4201D30B02C01A5241CDD282
:10042000C3098B4201D3CB01C01A524183098B42CD
:1004300001D38B01C01A524143098B4201D34B01B6
:10044000C01A524103098B4201D30B01C01A524119
:10045000C3088B4201D3CB00C01A524183088B42A0
:1004600001D38B00C01A524143088B4201D34B0089
:10047000C01A5241411A00D20146524110467047FB
:100480005DE0CA0F00D04942031000D34042534000
:1004900000229C4603098B422DD3030A8B4212D3C0
:1004A000FC22890112BA030A8B420CD389019211F2
:1004B0008B4208D3890192118B4204D389013AD02F
:1004C000921100E08909C3098B4201D3CB01C01A04
:1004D000524183098B4201D38B01C01A5241430917
:1004E0008B4201D34B01C01A524103098B4201D305
:1004F0000B01C01A5241C3088B4201D3CB00C01A72
:10050000524183088B4201D38B00C01A5241D9D289
:1005100043088B4201D34B00C01A5241411A00D20A
:100520000146634652415B10104601D34042002B06
:1005300000D54942704763465B1000D3404201B585
:10054000002000F005F802BD0029F8D016E770473A
:100550007047C0469140030090409C46203A93402B
:10056000194352426346D3401943704784461000F2
:1005700062468C461900634600E0C0461FB501F094
:100580006BF9002801D40021C8421FBD10B501F04D
:10059000AFF84042013010BD10B501F05DF9002800
:1005A00001DB002010BD012010BDC04610B501F0D8
:1005B00053F9002801DD002010BD012010BDC04608
:1005C00010B501F0D9F8002801DC002010BD012091
:1005D00010BDC04610B501F0CFF8002801DA0020A8
:1005E00010BD012010BDC0461C2101231B049842F0
:1005F00001D3000C10391B0A984201D3000A0839B4
:100600001B09984201D30009043902A2105C40186A
:100610007047C0460403020201010101000000000E
:1006200000000000002B11D1002A0FD1002900D1B9
:10063000002802D00021C943080007B4024802A1E3
:100640004018029003BDC04609FFFFFF03B468468F
:1006500001B5029800F0A2F8019B9E4602B00CBCC6
:100660007047C046F0B5CE469946030C9C4613042D
:1006700047461B0C1D000E0061460404240C80B587
:100680000700100C4B436543414360432C0CC018DA
:1006900024188C46A34203D980235B029846C444A5
:1006A000494679435643230C2D042D0C8919634484
:1006B00024046019C918C0BCB946B046F0BDC04694
:1006C00070B500220C4B04000D00FFF783FF0028DB
:1006D00004D12000290002F03FF870BD064B002233
:1006E0002000290001F00CFC02F036F880231B06E4
:1006F0009C466044F1E7C0460000E04170B500222E
:10070000002304000D00FFF747FF002808D1200058
:10071000290000F00FF802000B001000190070BD56
:1007200080231B06E918200000F004F80023424251
:100730008B41F2E770B500220B4B0D00040001F075
:10074000F9F8FFF7BDFF060002F070F80022074B32
:1007500001F0F0F802000B002000290001F0D0FBAE
:10076000FFF7AEFF310070BD0000F03D0000F0412A
:1007700070B50600080002F02BF80022064B01F0CD
:10078000D9F80D000400300002F050F82B002200D0
:1007900000F0D0F870BDC0460000F041F0B55746FB
:1007A0004E464546DE46E0B504000D0092469946A9
:1007B00083B08B4230D82DD04946504602F0DCF849
:1007C00029000600200002F0D7F8331A9846203B93
:1007D00034D49B4653465A46934042461F005346E4
:1007E00093401E00AF423BD8AF4200D179E05B4658
:1007F000A41BBD41002B00DA76E00022002300920A
:10080000019301235A4693400193012342469340AA
:10081000009329E08242CFD9002200230092019365
:100820000C9B002B01D01C605D600098019903B007
:10083000F0BCBB46B246A946A046F0BD42469B4628
:1008400020239B1A5246DA40414613004A468A400A
:10085000170042461F43534693401E00AF42C3D980
:1008600000220023009201934346002BD8D0FB07BF
:1008700072081A4346467B080EE0AB4201D1A24201
:100880000CD8A41A9D41012024196D410021013E7C
:1008900024184D41002E06D0AB42EED9013E24195A
:1008A0006D41002EF8D1009801995B46001969410D
:1008B000002B24DB2B005A464446D3402A00E2405A
:1008C0001C005B461500002B2ADB26009E403300EF
:1008D00026004746BE403200801A9941009001919F
:1008E0009EE7A342BCD882E74246202300219B1A00
:1008F0000022009101920122DA40019285E74246EE
:1009000020239B1A2A0046469A402300F34044467F
:1009100013432A00E2401C005B461500002BD4DA8A
:1009200042462F002023260097409B1ADE403B00C2
:100930003343CDE7F0B54F464646D646C0B582B004
:10094000009001910E034C00CD0F710A009E5F00D4
:10095000760F0E43009900920193C900894619034E
:100960007B0D9846019B490ADB0F9C46009B009A31
:100970005B0F0B434146640DD200611A654500D1FF
:10098000A6E0002972DD4746002F00D1DDE0CC4F04
:10099000BC4200D19AE10127382917DC80273F04A7
:1009A0003B431F2900DDDDE12027781A1F00874027
:1009B000BA461700CF408446380057460743604682
:1009C0008240CB40501E8241F61A17434B46DF1B34
:1009D000B94580414042361A330200D4FFE0760226
:1009E000760A002E00D13CE13000FFF7FDFD030048
:1009F000083B20213800CA1AD0409E4002009F4088
:100A000032439C4200DDA6E1181B0130091A3E006A
:100A10008F40C6407B1E9F4113008B4037431F43CE
:100A2000C2403B0016000024134300D1DFE17B07E6
:100A300000D132E30F233A003B40042B04D03A1D8F
:100A4000BA42BF417F42F619330200D423E39C4BE4
:100A500001349C4200D1B4E09A4B64051E40640D01
:100A60007707D20876021743360BACE0002900D195
:100A70007EE04146091B002C00D060E1340048466E
:100A8000044300D1C9E14C1E012900D12EE28C4D56
:100A9000A94200D124E20127382C11DC21001F29B2
:100AA00000DD0BE2202437004846641AA740C84006
:100AB00007434846A040CE40441EA0419B1B07432D
:100AC000D71BBA4292415242654644469E1A83E77A
:100AD000002900DC9CE04746002F67D11F00174328
:100AE00000D1E4E0481E012900D19BE1744FB942D6
:100AF00000D1EBE001270100382811DC1F2900DDBF
:100B0000C7E12027781A1F00844687401000C8409C
:100B1000074360468240CB40501E8241F61817437F
:100B20004F444F45804140423618330257D5644BFD
:100B300001349C4245D00121624B7A081E40394065
:100B40000A43F7071743760871E71F00174300D1E0
:100B5000ADE04F1EBC46012900D182E1584FB94299
:100B600000D190E161460127382900DD2EE718E722
:100B7000554F611C394200D0D0E0310048461F007B
:100B800001431743002C00D03DE1002900D1BCE116
:100B9000002F00D0BFE14B460021D808770707435C
:100BA000F00806034C05360B640D0CE0444FBC42C4
:100BB00000D18BE001273829B2DC80273F043B437A
:100BC0009CE70026002724053443ED072C4338001A
:100BD000210002B0E0BCBA46B146A846F0BD7B0792
:100BE00004D00F233B40042B00D028E7F808344BF7
:100BF00077070743F0089C4200D04AE23B000343DA
:100C000059D080263603064336032D4C360BDAE7DF
:100C1000002961D04146091B002C00D1B9E0284CC5
:100C2000A04500D1A5E10127382913DC8024240444
:100C300026431F2900DDC8E1202437004846641AF6
:100C4000A740C84007434846A040CE40441EA041AC
:100C50009B190743BF189742924152424446D61807
:100C600063E73800FFF7C0FC030018331F2B00DCDC
:100C7000BFE63A00083882409C4200DD83E01B1B3F
:100C8000581C1F2800DCB4E117001F3BDF40202860
:100C900005D040231B1A9A40531E9A411743002443
:100CA000002F0AD07B0700D0C4E626009EE74B4603
:100CB0000C00D8089BE70027014C002683E7C046BC
:100CC000FF070000FFFF7FFFFE0700004B4677078E
:100CD000D8080743F00891E7CD4F611C39426BD12A
:100CE000310048460143002C00D04BE11F00174360
:100CF000002900D181E1002F00D14CE74A444A4548
:100D00008041F61840423618330200D5B0E1170092
:100D10009146374300D03EE7002654E74946891AFA
:100D20008846C145BF41F11A7F42C91B0F0261D4F9
:100D300047460F4300D1BDE00E00474651E6B54C93
:100D4000A04500D100E10127382900DDB8E6802464
:100D500024042643A3E6B04EE41A16407B0700D0D5
:100D60003FE743E70F001800203FF8408446202962
:100D700003D04027791A8B401A43531E9A41634689
:100D800017001F4322E6A448E11A10404707C00895
:100D900007E734004846044300D1FAE04C1E01291D
:100DA00000D1D7E09B4FB94200D1E2E00127382CB7
:100DB00000DD4FE721003CE7964CA14200D1DDE089
:100DC0004A444A458041F31840421818C707520860
:100DD00017434608520705D00F220C003A40042A58
:100DE00000D02CE67607FF0837430009D9E6002734
:100DF0000026E8E64946571ABA4292419E1B5242E3
:100E00006546B61AEDE5002900D0C6E0002F67D18F
:100E1000802600257F4C3603D5E665460C001E0073
:100E2000D008E4E64A444A458041F3184042181885
:100E30001100030200D496E0774B49081840C3071D
:100E40000B434408490700D129E10F221A40042A24
:100E500000D1EAE01F1D9F42B641764236190224B6
:100E6000C4E649468F1AB9458041F61A4042361AFF
:100E7000330206D47307FF0801211F43F00890E6F0
:100E800065460124ABE54B467707D8080743F008D1
:100E9000B4E60F001800203FF8408446202903D014
:100EA0004027791A8B401A43531E9A416346170014
:100EB0001F4335E600250024002684E60C0035009B
:100EC000203CE540202905D04024611A8E40494647
:100ED000314389464846411E884107002F43EFE5CC
:100EE000D2085F0765461743D80887E6171ABA4243
:100EF00092419E1B5242B61A3302C1D47307FF08B7
:100F0000654601211F43F0084BE6002F7BD0654664
:100F10001E0091463FE6811A8846C145A441F11A58
:100F20006442091B80242404214277D0101A824293
:100F3000924107009E1B5242B61A374300D0A0E0F0
:100F40006546002400263EE65F07D2086546174343
:100F5000D80853E6811891429241F0185242801805
:100F6000030200D568E74707C9080F43C0080121FD
:100F700017E6D2085F071743D8083FE60C000026A3
:100F8000002720E6002956D15F07D2081743D8086A
:100F900034E60C001E00D00829E6C10870070143A2
:100FA000F008002F62D080242403204207D0DE08FE
:100FB000264204D165463000D1085B0719434F0F24
:100FC000C900C9087F070F4318E60C003000203C19
:100FD000E0408446202905D04024611A8E404946CD
:100FE000314389464846411E8841614607000F4308
:100FF00030E620210027091A0EE51E00002F00D040
:1010000022E5002458E7002500240026DBE5C04641
:10101000FE070000FF070000FFFF7FFF47460F436A
:1010200000D147E70E00C146B5E5DF08640702219D
:1010300027430009B5E51900C008770707431143A6
:10104000F008002900D1D9E580210903084207D022
:10105000DC080C4204D1D2085B071A4317002000B9
:101060007B0FFF00FF085B071F43C7E50F00C5E5C7
:10107000124BD20833405F075B02012417431E0B5B
:10108000A1E5264212D00D4B6546020001241E4008
:10109000E6E4210085E51700A8E53A00D4E4DB0882
:1010A00064071C432700022100097AE5C00877077E
:1010B000074365460021F00873E5C046FFFF7FFF48
:1010C000F0B5DE46454657464E46E0B587B000923D
:1010D00001930B031B0B9B46CA0F4B000400804679
:1010E0005B0D029200D198E07C4A934237D059467A
:1010F000420FC9000A43802109041143C2009046EF
:10110000774A894692469A44002300240393009E1E
:10111000019F3B031B0B9B467B0030005B0DFD0FCB
:10112000002B59D06D4A934248D05946720FC900DE
:101130000A438021090411438B466949F2008C4619
:1011400051466344CB1A9A460021029E6E40F6B285
:101150000F2C00D9CEE0634BA4001B599F465A4682
:101160000243914600D090E09A460223904608241C
:101170000393CCE7CB464246029D0399022900D156
:10118000DEE1032900D18DE0012900D079E12E00B4
:1011900000220023002490461B052343F607334317
:1011A0004046190007B0F0BCBB46B246A946A0466F
:1011B000F0BD002200249046484BEDE75A46009BC4
:1011C0001A43494B9C46E244002A59D102231C434E
:1011D000002302219B46B8E75A46009B1A4349D098
:1011E0005B46002B00D19CE15846FFF7FDF9020059
:1011F00003000B3A1D27009EBA1A19005846D64024
:1012000008398840320002439346009A8A403749A1
:1012100053448A4600219A4497E75B460343994624
:1012200021D05B46002B00D169E15846FFF7DCF97D
:101230000B235B429C460200844466461D239B1B95
:10124000260011005846DE40083988403300034329
:10125000994623008B409846254B00249B1A9A46BA
:101260000023039353E7002398469A46013304244E
:1012700003934CE701231C43002301219B4664E7B1
:101280000323320003211C435FE79A460323D94618
:101290000C2403933BE700238024984600260F4B41
:1012A000240379E780245B4624031C4324032E0097
:1012B00090460A4B240B6FE780244B4624032342BD
:1012C00002D05B462342F0D080244B4624031C43CB
:1012D0002403029E014B240B5EE7C046FF0700007B
:1012E00001FCFFFF90C9061001F8FFFFF3030000A7
:1012F0000DFCFFFFCB4500D2F8E000D1F3E0012365
:101300005B429C46444648460025E2445B46170E35
:101310001B021F43190C3B04120200971F0C91463D
:1013200002910397FFF726F802007A430B04210C81
:10133000804619438A4209D9009F0123BC465B427B
:1013400061449C46E0448F4200D85CE1881A0299CF
:10135000FFF710F8039A240442430904240C030005
:101360000C43A24206D90099013B8C466444A14239
:1013700000D842E1A01A424612041A4393464B4653
:1013800059461B0C1F0004930B0449460904090C21
:101390000C001B0C5C43120C7B43884651437A4380
:1013A000270CBC465B186344994203D9802149024B
:1013B0008C466244190C24041B04240C8A181C1942
:1013C000904202D316D1A54214D25B46009F013B46
:1013D0004D4405934D459B41BC465B426344C01858
:1013E000874200D302E1824200D929E100D124E101
:1013F000059B9B462C1BA542AD41009B801A6D426C
:10140000401B834200D10FE10299FEF7B3FF039A1C
:101410000B044243210C050019438A4200D9CBE05A
:10142000881A0299FEF7A6FF039A2404424309048E
:10143000240C03000C43A24200D9CAE04146A41A7E
:101440002A041A43049F13041B0C594340467B4350
:101450009C46150C68430B0C844463447D439842BE
:1014600003D98020400284466544180C09041B04FB
:10147000090C40195B18844227D323D0012335007F
:101480001A43944B5344002B60DD510700D086E093
:101490002E00D1085A46D20106D55A468E4B1A4024
:1014A00080239346DB0053448C4A934200DD80E660
:1014B0005A4652070A4390465A465B055402240B8B
:1014C0005B0D69E63500002BDBD0009D511EAC465C
:1014D0006444AC4200D29EE0844200D2E1E000D1FC
:1014E000EEE00A00CAE7424500D908E74B46DC07B0
:1014F000580843465B081C434346DD0706E7FFF7F1
:1015000073F815239C4684440200634620321C2B4A
:1015100000DC92E623000838834099460023984671
:101520009AE6FFF761F802000300153220331C2A07
:1015300000DC5FE600990838814000228B4666E6B1
:1015400000222E0000249046654B25E62E00012146
:10155000C91A382900DD1BE61F297EDC614814000A
:1015600050445B4682408340CC40501E824123431E
:101570001A435B46CB40510709D00F211140042983
:1015800005D0111D9142924152429B180A00190246
:1015900000D49BE00022012300249046FCE50F21AB
:1015A0001140042900D173E7111D9142924152422A
:1015B0002E00C90893446DE7009B013D9C466144A1
:1015C0008B4200D92CE78A4200D829E7851E614466
:1015D00026E70099013B8C466444A14200D92DE7DF
:1015E000A24200D82AE7831E644427E7874200D03E
:1015F000FEE6A94500D9FBE6F5E6A24200D8B9E629
:10160000831E6444B6E68A4200D89FE6BC46831E29
:10161000984661449AE60A00844200D02EE74B4582
:1016200000D02BE735002CE72A4B2F4A5344924534
:1016300043DB0122002193442CE7AC4200D8D7E6DB
:1016400002235B429C4600994D444D459B41E34437
:101650008C465B426344C018CCE61F204042C31A4C
:101660005846D840202904D05946204B534499402D
:101670000A43531E9A4107231900024300241140D4
:10168000134209D008331340042B1DD0131D93427D
:1016900089411A0049424907D2080A43904600236B
:1016A0007AE54946009F4D004D458941BC46494277
:1016B0006144A946023A6418AEE70122524246E765
:1016C0009945EED30A00AAE70021E5E759075B0236
:1016D0001C0BE1E7FF030000FFFFFFFEFE07000019
:1016E000FF0700001E04000002FCFFFF3E04000094
:1016F000F0B55746DE464E464546E0B50D000400BF
:10170000E80F83460903D80F090B824619488C4617
:101710001F0369005E00490D3F0B760D814218D012
:1017200086420FD00120B1420DD1BC450BD194426D
:1017300009D1D3451CD0002905D160462043431E62
:10174000984100E00120F0BCBB46B246A946A04645
:10175000F0BD01208E42F6D1614639430F00174398
:101760002743F0D15B465246981A431E9841EAE758
:101770000020E8E7FF070000F0B557464E46454613
:10178000DE46E0B50D000E034900490D8A46DF0F25
:10179000E90FBC4683B02F4F0400804601915800EA
:1017A00019039146360B090B400DBA451DD0B842BE
:1017B0000DD05746002F2AD13443002824D10A43A4
:1017C00036D0002C41D163465800013815E0114352
:1017D00038D15346002B01D12643F4D0019B6345F9
:1017E00007D1019B5800013807E026432AD1504514
:1017F00021D00120019B5F42384303B0F0BCBB46BF
:10180000B246A946A046F0BD002CDCD0E6E7002891
:10181000EFD0019B6345ECD18245EADCE1DB8E42EF
:10182000E7D8DED1C845E4D80020C845E5D2D8E7DE
:10183000002CE2D0DDE7114304D1019B6345D8D1F0
:101840000020DAE702204042D7E7019B6345E6D05B
:10185000CFE7C046FF070000F0B557464E46454665
:10186000DE46E0B50D000E034900490D8A46DF0F44
:10187000E90FBC4683B02E4F04008046019158000A
:1018800019039146360B090B400DBA451ED0B842DC
:101890000DD05746002F27D13443002833D10A43B7
:1018A00034D0002C40D163465800013815E0114374
:1018B00012D15346002B01D12643F4D0019B63453E
:1018C0001DD00120019B5F42384306E0264303D12F
:1018D0005045F6D111431CD0022003B0F0BCBB46EA
:1018E000B246A946A046F0BD0028EAD0019B634558
:1018F000E7D18245E5DC02DB8E42E2D80ED0019BC7
:1019000058000138E9E7002CCDD0D7E7002CE4D00F
:10191000D7E7019B00206345DFD0D2E7C845D0D888
:101920000020C845D9D2EAE7019B6345E4D0C8E767
:10193000FF070000F0B557464E46DE464546E0B587
:101940001F000B031B0B16009A46CA0F4B00040026
:10195000914685B05B0D00D1CFE1CD4A934255D081
:101960005146420FC9000A43802109041143C200B5
:101970009046C84A8A4693469B440023002502931A
:101980003C037B00FA0F0196240B5B0D009200D103
:1019900088E1BF4A934200D192E0BE4A9446634434
:1019A0009B440A2D42DCE400730F23438024494604
:1019B00024041C43F3000193009B00205940CBB248
:1019C0000393022D00DC94E00123AB401D00A6230D
:1019D0002A00DB001A401D4200D029E290239B0020
:1019E0001D4200D14DE20023802499462403A84BD8
:1019F00010004A461B052343D2071343190005B0C4
:101A0000F0BCBB46B246A946A046F0BD52460243D2
:101A1000904600D0ACE19B460223924608250293F3
:101A2000AEE7009BA2469946019B9846029B022B7B
:101A300000D1CAE1032B00D192E1012B10D1002388
:101A400000240022D4E701227B083A401343524687
:101A5000D2071343984653465B089A46039B994620
:101A60005B46581C8023DB005B44002B00DCB1E1AB
:101A7000424652070BD00F2241460A40042A06D0A4
:101A80004246111D41459241884652429244524677
:101A9000D20106D55246804B1A4080239246DB0085
:101AA000C3187E4A934200DD8FE14246D108524678
:101AB00052070A4351465B054C02240B5B0D97E726
:101AC000734B26439C46E344002E00D16FE1032371
:101AD00049461D43009B5940CBB203930A2D00DDBC
:101AE00033E10123AB401D000323029388222A42E5
:101AF00097D1424643461204120C160001981D0C61
:101B0000030C0004000C4643B4461E006E430096CE
:101B1000160007005E436146B0466F430E0CB844A2
:101B20004644B74205D9802149028846009F474470
:101B3000009761460904090C370C36048C463100C5
:101B4000614401911100260C2404240C61438C464D
:101B50002100694389466146090C884672434A441C
:101B600042447543914503D9802149028846454442
:101B7000110C884661460904090C8C461204624423
:101B8000B91802915146090C8C4651460F043F0C7E
:101B90003900414345448846614641438A464146AF
:101BA0006046090C894658437B4353444B449A454D
:101BB00003D98021490289464844190C8946414687
:101BC0000904090C8846390061431B0443448846D4
:101BD00061464C4371438C46414677430E0C3F1996
:101BE000F6194844B44203D9802149028946CC44BD
:101BF0000299009F894631044F44894641469742E5
:101C000092410C04240C4C44FF1852426419A11850
:101C10009F429B41884682465B429946904592414D
:101C2000AC42A441C244D144524264421443994557
:101C30009B41824592415B42524213434A46360CD5
:101C4000A419E31863445B02D20D1A43019992462A
:101C50007A020A43501E8241FF0D17434A46520240
:101C60001743B846DB0100D5EDE60D4B039A5B4404
:101C70009146002B00DCACE03A00520700D110E79F
:101C80000F2258463A40042A00D0F9E609E7C04638
:101C9000FF07000001FCFFFFFFFFFFFEFE07000043
:101CA000FF030000220032436FD0002C00D1C2E0BD
:101CB0002000FEF799FC020003000B3A1D20821A57
:101CC00030001900D04008398C4002002243340013
:101CD0008C405946CB1A86498B469B440A2D00DD21
:101CE000A4E64946009B01945940CBB21400002061
:101CF0000393022D00DD67E6FBE653460343984657
:101D00003CD05346002B00D1A3E05046FEF76CFCBC
:101D10000B235B429C460200844411005046083964
:101D200088401D23804660461B1A2000D8400300CF
:101D3000404603439A4623008B4098466C4B00254F
:101D40009B1A9B46002302931AE60F2D00D0C9E090
:101D5000802352461B031A4202D01C4200D192E05B
:101D60008024534624031C4324034246240B3EE6AE
:101D70009B46032380460C25029301E600239A46E6
:101D80009B46013304250293FAE501210D430A2DF8
:101D900000DD4BE6494600984140C9B20391022D4F
:101DA00000DC96E000230024012001930CE6494664
:101DB0000223009A2B435140CAB203920A2B00DD42
:101DC00034E6002D57D1039B994600240022494B4D
:101DD0000EE658460121C91A382900DD2FE61F29D1
:101DE00056DD1F2254465242D31ADC40202907D028
:101DF000414B42469C465346604483401A439046BA
:101E000042460721531E9A410B00224313400024EF
:101E1000114209D00F231340042B5DD0111D9142B4
:101E20009B410A005B425B07D2081A430023DFE5AF
:101E3000039B9946FAE50198FEF7D6FB02000300E2
:101E4000153220331C2A00DC38E7019A083882401A
:101E50003FE7FEF7C9FB15239C4684440200634616
:101E600020321C2B00DC58E700239846230008385A
:101E700083409A4662E71D0000230024022001935C
:101E8000A2E5029032E61C43009B019A9946AEE51A
:101E90001A4B5246C31840469A40C8400243404637
:101EA00098400300581E834154461A43CC405307C0
:101EB00009D00F231340042B05D0131D93429241E8
:101EC0005242A4181A00230208D50123002400223C
:101ED0008EE5894600248BE50023A5E763076402AD
:101EE000240BA1E7009BA2469946019B984637E741
:101EF0000DFCFFFFFF0700003E0400001E04000071
:101F0000F0B557464E464546DE46E0B583B00090F4
:101F100001910C034D00CE0F610A009C5F00640F1D
:101F20000C43009900920193C80019037B0D994658
:101F3000019BCC4FDB0F9C464B0A00998046490F12
:101F40001943009B8B46DA0092466D0DB94500D1CE
:101F5000BFE00123614659404B468C46EB1A8E4246
:101F600075D0002B00DCA3E24946002900D1CEE069
:101F7000BD4200D100E20127382B19DC80275946E9
:101F80003F0439438B461F2B00DDFAE12027F91A65
:101F90008C4659466746B9400F001100D9400F439F
:101FA00061468A40511E8A415946D9401743641AF6
:101FB000C71BB84280414042241A230200D440E1AA
:101FC0006402640A002C00D154E12000FEF70CFBEF
:101FD0000300083B20213800CA1AD0409C40020070
:101FE0009F4022439D4200DDA6E1581B0130091AA3
:101FF0003C008F40C4407B1E9F4113008B40274311
:102000001F43C2403B0014000025134300D1F7E1F9
:102010007B0700D177E30F2338003B40042B04D02B
:10202000381DB842BF417F42E419230200D468E35F
:102030008C4B01359D4200D1F4E08B4B6D051C406B
:102040006D0D6707C00864020743240BECE0002B0A
:1020500000DC29E34946002900D0D6E05946114367
:1020600000D12EE1591E012B00D1E6E1BB4200D187
:1020700082E101270B00382914DC1F2B00DD3CE234
:102080002027F91A8C4659466746B9400F001100BF
:10209000D9400F4361468A40511E8A415946D94072
:1020A000174364183F188742804140422418230296
:1020B00000D4C6E06B4B01359D4200D1B2E0012156
:1020C000694B7A081C4039400A43E7071743640804
:1020D0009EE7664B11438A46EB18002928D06645D7
:1020E0002CD0002B5BD0002D00D12CE15B46664646
:1020F0005F07D2081743DD083B002B4300D1E2E025
:10210000802424032C432403564D240B8CE0594691
:10211000114300D1D5E0591E012B00D1B9E1BB42DA
:1021200000D1B1E101270B00382900DD40E72AE7A3
:102130006146012779408C466645D2D1002B00D1FB
:10214000C5E0002D00D055E14B462500054300D1E8
:1021500012E2591E8C46012B00D149E2414DAB429F
:1021600000D18FE20127382911DC63461F2B00DDE7
:102170005BE26146202327005B1A050098409F40E0
:10218000CD40431E9841CC402F430743A344BF1882
:102190009742924152425A4414004D4687E7344FC9
:1021A0006B1C3B4200D0B6E05946230011430F00A0
:1021B0000343002D00D026E1002B00D1C0E100290F
:1021C00000D1A1E0831A98465B464045AD41E31A31
:1021D0006D425B1B80252D042B4200D14BE15B46F9
:1021E000101A824292411C1B07000126634652428C
:1021F000A41A27431E40002F00D142E12C4200D1F7
:102200006DE2194B01251C401BE7BD4200D13BE1AB
:102210000127382B00DD45E7802759463F04394325
:102220008B462AE7002400272D052543F607354372
:102230003800290003B0F0BCBB46B246A946A04610
:10224000F0BD7B0704D00F233B40042B00D0E7E612
:102250002B00F808034A67070743E508934200D1BB
:102260004AE7A5E0FF070000FFFF7FFF01F8FFFF3F
:10227000FE0700003800FEF7B7F9030018331F2BE4
:1022800000DCA7E63A00083882409D4200DD8AE083
:102290005B1B581C1F2800DCD8E117001F3BDF40E8
:1022A000202805D040231B1A9A40531E9A411743F9
:1022B0000025002F00D1E5E07B0700D0ABE62C0025
:1022C000C6E7C008C6E700270024D14DACE7D14FD0
:1022D0006B1C3B4271D123000343002D00D04EE123
:1022E0005746002B00D1B5E1002F0DD08318834253
:1022F00080415C4440422418220200D5C8E11F00FE
:102300009846274300D1BCE043466707DB081F43DC
:10231000E50800234CE0831A98465B464045BF41E0
:10232000E31A7F42DB1B1F027CD447461F4300D1C8
:10233000A6E01C00474645E6B74CED1A14407B0763
:1023400000D080E784E74B462500054366D05F1E3A
:10235000012B00D1FCE0AE4DAB4200D15EE1664600
:10236000382F00DCB4E00120171ABA4292415B46D4
:1023700052424D469C1A20E66707C0080743E5080D
:10238000BAE61F005946203FF9400F00202B05D028
:102390004021CB1A594699400A43924653465A1E49
:1023A00093411F4304E6EB1A9B4D15406F07ED0860
:1023B0002C035D05240B6D0D36E7954DAB4200D126
:1023C000D6E08218210082428041594440420818D8
:1023D000C707520817434408520700D485E10F226B
:1023E0001D003A40042A00D01AE6FF08640727437C
:1023F0000509DDE75B46D2085F071743DD087BE68A
:102400000027002410E7002B00D0D6E0002900D0E0
:102410002FE1802400267E4D240305E766465C46B6
:10242000D00817E75B46171ABA4292411C1B0126D7
:1024300063465242A41A1E40C4E583188342804179
:102440005C44404225182A0200D4DAE0724A5B0854
:102450001540EA071A4369085B0700D44AE10F23D5
:102460001340042B00D1FCE0171D9742A4416442A5
:1024700002256418ECE647461C001F4300D043E7E2
:10248000002600250024CFE6C00867070743E508BB
:1024900032E6871A5B46B8428041E41A4042241A69
:1024A000230228D46307FF081F43E50801237FE7C1
:1024B000002B00D173E64B465F1B3B00002D00D183
:1024C00042E7382F00DDECE080230E001B041C43A4
:1024D0001F2F25DC20252300ED1B0100A840AB4069
:1024E000F940451EA8410B43FC4018435B461B1BAB
:1024F0009B4639E76646012562E51F005946203FA5
:10250000F9408C46202B05D040275946FB1A9940AC
:102510000A43924657467B1E9F4163461F43C1E5CF
:102520003B002500203BDD40202F04D04023DB1B57
:102530009C40204380464046431E9841284313E771
:1025400000299DD0012663465C4690461E40DBE68E
:10255000171A5B46BA4292411C1B5242A41A23022C
:10256000C8D46307FF081F4366460123E5081FE739
:102570001D000024002757E65C46D0086AE6002BC1
:1025800000D137E75346C00867070743E508002B2B
:1025900000D1B1E580231B031D4208D05946C8086D
:1025A000184204D1D20849070A43170005007B0FDF
:1025B000FF00FF085B071F439EE5C0086307184341
:1025C000E508002953D080231B031D420AD0594639
:1025D000CC081C4206D1012663462500D0084907D5
:1025E00008431E40470FC000C0087F07074383E52C
:1025F0008318934292415C445242A5182A0200D5A6
:1026000024E76F07DB081F43ED080123D0E6C0462F
:10261000FF070000FE070000FFFF7FFF5B46D208B8
:102620005F0766461743DD0866E52500203BDD4071
:102630006346202B05D0402361465B1A9C40204313
:10264000804647467B1E9F412F43A0E5202100275F
:10265000091AD2E4002F00D113E75C4617000025C9
:10266000F6E5D708490702230F432D09A0E6070026
:1026700042E55B4601265F07DD086346D208174343
:102680001E4039E55B46D2085F071743DD0833E596
:102690001E4ADB0822405707520201251F43140B34
:1026A000C2E50E0001205FE6002B0DD04B465B1B00
:1026B0009C46002D00D148E50127382B00DD66E55A
:1026C00080231B041C4350E56B1C114D2B4200D092
:1026D00073E65946230011438A46034300E6670721
:1026E000C00800230743E50862E66407FF082743A4
:1026F00005095DE6D208490711430F0002232D09A1
:1027000056E60700A4E538008FE4C046FFFF7FFFD0
:10271000FE070000F0B5C6461E03360BB0460D4E50
:102720000C034D005F0000B5240B6D0D7F0DB5420D
:102730000BD0084900208F4204D146461643300092
:10274000431E984180BCB846F0BD04430120002CD4
:10275000F8D1EEE7FF0700000B00020070B5164D40
:102760000C0382B04900002000920193240B490D14
:10277000DE0FA94204DD1148814203DD104BF01841
:1027800002B070BD8020400320430E4C641A1F2C01
:1027900008DD0D4B5B1AD84003005842002EEFD1E4
:1027A0001800EDE7094B009A9C46030061448B40FA
:1027B000E2401343F1E7C046FE0300001D040000A1
:1027C000FFFFFF7F3304000013040000EDFBFFFF59
:1027D00070B5002816D0C317C5185D40C40F280077
:1027E000FDF702FF104B1B1A5B055B0D0A2814DC7A
:1027F00002002E00153296400B22121AD5402D03EE
:102800002D0B03E000240023002500261B052B438D
:10281000E40723433000190070BD0B3885402D03B9
:1028200000262D0BF2E7C0461E04000010B5041E62
:1028300010D0FDF7D9FE0E4B1B1A5B055B0D0A2865
:102840000FDC0B222100121AD14015300A038440FC
:10285000120B01E0002300221B0513432000190086
:1028600010BD22000B38824012030024120BF3E744
:102870001E040000F0B54B000F035B0D3A4C450FF2
:1028800083B07F0A5E1C2F4300900191CA0FC500E0
:1028900026420BD035495C18FE2C13DDFF200023A7
:1028A000C0051843D207104303B0F0BD3D43002BD1
:1028B00001D10020F4E7002DF0D08023DB03FF20BE
:1028C0003B43EDE7002C0CDD009BFF009B01581EF5
:1028D0008341690F3B430B43590727D1DB08E0B223
:1028E000DEE72100173131DB80211E200904394346
:1028F000001B1F282DDD02267642341B0E00E64009
:102900003400202804D01A488446634499400D437B
:102910002B00591E8B412343590703D00F21194027
:1029200004290BD19B0100205B0AB9E70F21194054
:10293000042904D19B015B0AE0B2B1E7002404330F
:102940005901F7D501340023E0B2A9E700200023A4
:10295000A6E7084C1C192B00A540C340A140681EE7
:10296000854129430B43D7E7FE07000080FCFFFFAA
:10297000A2FCFFFF82FCFFFF10B5002903D1FDF789
:1029800033FE203002E00800FDF72EFE10BDC046E9
:1029900080B582B000AF0200FB1D1A70FB1D1B78D2
:1029A0007F2B09D8FB1D1B781A001F231A40044BEC
:1029B000012191400A001A60C046BD4602B080BDA8
:1029C00000E100E090B583B000AF02003960FB1D6C
:1029D0001A70FB1D1B787F2B28D82F4AFB1D1B78F4
:1029E0005BB29B08C0339B009B58FA1D1278110004
:1029F00003220A40D200FF2191400A00D2431A402C
:102A000011003B689B01FF221A40FB1D1B78180038
:102A100003230340DB009A401F48FB1D1B785BB279
:102A20009B080A43C0339B001A5031E01B4AFB1D30
:102A30001B7819000F230B40083B9B0806339B00B3
:102A4000D31804331B68FA1D1278110003220A40C0
:102A5000D200FF2191400A00D2431A4011003B6886
:102A60009B01FF221A40FB1D1B7818000323034023
:102A7000DB009A400948FB1D1B781C000F232340F4
:102A8000083B9B080A4306339B00C31804331A60B3
:102A9000C046BD4603B090BD00E100E000ED00E09F
:102AA00080B586B000AF7860EFF31083BB60BB6881
:102AB0007B610123FB60FB6883F31088C0467B6861
:102AC0001B6820221A437B681A607B693B613B6963
:102AD00083F31088C046C046BD4606B080BD80B5B1
:102AE00086B000AF7860002005F087F800F03CF871
:102AF00000F04CF808217B18E12252021A607B1882
:102B000000225A607B1800221A817B1800225A8109
:102B10007B1800229A817B181900002008F0E4FE3F
:102B200000F0E2F805F0C0FE031E01D000F05DFCED
:102B300005F06CF905F02AFB01F0B8F90FF0B8FCCC
:102B4000002005F064F800231800BD4606B080BDE3
:102B500080B582B000AFFB1D03221A70FB1D1B78ED
:102B60001800BD4602B080BD80B500AF002008F05F
:102B700039FD012008F036FD022008F033FD012068
:102B800008F0A6FDC046BD4680BD000080B582B0FD
:102B900000AF334B00221A70314B28220121995487
:102BA0002F4B5022022199540121002008F0CCFD26
:102BB0000121012008F0C8FD0121022008F0C4FD18
:102BC00080235B02012118000AF0AAF901212020CC
:102BD0000AF0A6F98023DB03012118000AF0A0F90E
:102BE000204B1A00002108200FF008FE1E4B1A008F
:102BF000002110200FF002FE1C4B1A0000212020A3
:102C00000FF0FCFDFB1D00221A7021E0FB1D1A785D
:102C1000134913009B009B18DB00CB181033144A98
:102C20001A60FB1D1978FB1D1A780B009B005B18BE
:102C3000DB000B4959180A4813009B009B18DB0066
:102C4000C3181C331960FB1D1A78FB1D01321A7062
:102C5000FB1D1B78022BD9D9C046BD4602B080BDF2
:102C600098010020014E0410454E0410B54E04108A
:102C7000752C041080B584B000AF78607B685B6908
:102C8000FB60FB681B78180008F0FAFD0300D9B25E
:102C9000FB6820229954FB681B785A1C114B1100C9
:102CA000180024F0F3FBFB681B78022B0FD013DC19
:102CB000002B02D0012B05D00EE0002108200FF0E0
:102CC000C1FD0AE0002110200FF0BCFD05E000214D
:102CD00020200FF0B7FD00E0C046C046BD4604B05E
:102CE00080BDC04638B5061080B500AF0A4B18004D
:102CF000FFF7D6FE01210820FFF764FE0820FFF74A
:102D000047FE064B1B68986800230222002124F02E
:102D100037FCC046BD4680BD004000413015002054
:102D200080B582B000AF78600A00BB1C1A80154BDA
:102D30001B88FF2B21D87B681B780D2B12D1124AE0
:102D4000124B1100180024F0A1FB00F021F80D4BEC
:102D500000221A8080235A000B4B0021180024F017
:102D6000E1FD0AE0074B1B885A1C91B2054A11800D
:102D70001A007B681978044B9954C046BD4602B0CE
:102D800080BDC04610030020100200204CB5061084
:102D900080B500AF434A444B11001800FDF73EFADE
:102DA000031E0CD1414B180024F0E0FB404B2022C5
:102DB00000219954002108200FF044FD6EE03D4AA7
:102DC000394B11001800FDF729FA031E0CD13A4BBC
:102DD000180024F0CBFB364B4822002199540021E7
:102DE00010200FF02FFD59E0344A2F4B110018002E
:102DF000FDF714FA031E0CD1314B180024F0B6FB7A
:102E00002B4B702200219954002120200FF01AFD35
:102E100044E02C4A244B11001800FDF7FFF9031E73
:102E20000CD1294B180024F0A1FB214B20220121B9
:102E30009954002108200FF005FD2FE0234A1A4B7A
:102E400011001800FDF7EAF9031E0CD1204B180001
:102E500024F08CFB164B48220121995400211020AC
:102E60000FF0F0FC1AE01B4A0F4B11001800FDF7A1
:102E7000D5F9031E0CD1184B180024F077FB0C4B2E
:102E8000702201219954002120200FF0DBFC05E085
:102E9000054A124B1100180024F0F8FAC046BD464E
:102EA00080BDC0465CB506101002002060B506105B
:102EB0009801002068B506106CB5061074B50610B0
:102EC00078B5061080B506108CB5061098B50610BA
:102ED000A4B50610B0B50610BCB50610C8B50610EE
:102EE00080B500AF01235B4218000FF087FBC0469E
:102EF000BD4680BD80B500AFC046BD4680BDF0B5C3
:102F000093B000AF4723FB1800221A700CE0472053
:102F10003B181A783B1D92000021D150C0463B1847
:102F20001A783B1801321A704723FB181B78092BBB
:102F3000EDD910F083FA031E5AD046257C19FFF70D
:102F400007FE030023707B191B78002B50D0452609
:102F5000BC190BF0DDFA030023704423FC1805F0C4
:102F60002BF9030023704323FA187B19B9190C7845
:102F70001B78D8B2E1B2884200D9231C13704323D6
:102F8000FA18FB18442179180C781B78D8B2E1B2F2
:102F9000884200D9231C13704323FB181B78032B92
:102FA00019D021DC022B0DD01EDC002B1FD0012BF1
:102FB0001AD1012101200FF08BFA012101200FF01D
:102FC000B7FA11E0002101200FF082FA012101205F
:102FD0000FF0AEFA08E0002101200FF079FA00218D
:102FE00001200FF0A5FAC0460FF0D2FA00E0C0466B
:102FF000BD4613B0F0BD000080B582B000AF020046
:10300000FB1D1A70FB1D1A780E49202013009B002F
:103010009B18DB00CB181B1800221A70FB1D1A78B6
:1030200013009B009B18DB0008331A00054BD318D4
:10303000FA225200110018000BF05CFCC046BD469D
:1030400002B080BD9801002080B582B000AF7860EA
:103050007A6880235B02134002D00020FFF7CCFF88
:103060007B682022134002D00120FFF7C5FF7A6859
:103070008023DB03134002D00220FFF7BDFFC046D0
:10308000BD4602B080BD80B582B000AF78600A0056
:10309000BB1C1A80BB1C1B88012B03D10020FFF72F
:1030A000ABFF11E0BB1C1B88202B03D10120FFF7D5
:1030B000A3FF09E0BB1C1A888023DB019A4203D1DD
:1030C0000220FFF799FFC046C046BD4602B080BD52
:1030D00080B582B000AF78607B681B691800BD4680
:1030E00002B080BD80B584B000AF7860074B196D29
:1030F000064B7A680A431A65044B1B6D7A681340C5
:10310000FB60FB68C046BD4604B080BD000040487F
:1031100080B584B000AF7860074B196E064B7A68B3
:103120000A431A66044B1B6E7A681340FB60FB6807
:10313000C046BD4604B080BD0000404880B582B0A6
:1031400000AF7860064B1B6E7A6813407A689A422B
:1031500001D1012300E000231800BD4602B080BD6C
:103160000000404880B582B000AF7860044B196C15
:10317000034B7A680A431A64C046BD4602B080BD5C
:103180000000404880B582B000AF7860054B1A6CF3
:103190007B68D943034B0A401A64C046BD4602B05F
:1031A00080BDC0460000404880B500AF08F092FEE8
:1031B00000F012F800F047F800F00AF900F0B6F855
:1031C00000F0D2F800F09EF800F05AF80020FFF767
:1031D00086FCFFF785FEFCE790B589B000AF0824B8
:1031E0003B19180018231A00002124F09BFB3B0018
:1031F000180008231A00002124F094FB3B19032235
:103200001A603B19802252025A603B191022DA6080
:103210003B1918000CF0D8FC031E01D000F0E5F8B3
:103220003B0000221A603B0020225A603B00002134
:1032300018000CF013FE031E01D000F0D6F8C046B3
:10324000BD4609B090BD80B586B000AF3B00180008
:1032500018231A00002124F065FB3B0002221A60AB
:103260003B00802252015A613B0018000CF08CFF99
:10327000031E01D000F0B9F8C046BD4606B080BDBF
:1032800080B500AF1D4B1E4A1A601C4B962292015E
:103290005A601A4B00229A60184B0022DA60174BD2
:1032A00000221A61154B0C225A61144B00229A61BC
:1032B000124B00221A62114B00225A620F4B00225D
:1032C0009A620E4B18000DF03BF8031E01D000F07F
:1032D0008CF80A4B002118000EF0F8FA031E01D0FA
:1032E00000F083F8054B002118000EF02FFB031EA1
:1032F00001D000F07AF8C046BD4680BD140300201E
:103300000050004180B500AF064B074A1A60054BDC
:10331000180009F03FFC031E01D000F066F8C0461B
:10332000BD4680BDE00300200000304880B582B07B
:1033300000AF00237B600120FFF700FF031E08D1D0
:103340000120FFF70FFF0120FFF71CFF0120FFF70F
:10335000DFFEC023DB057B603B1D18000AF018F977
:10336000C046BD4602B080BD80B582B000AF3B0014
:10337000180008231A00002124F0D4FA0120FFF7D6
:10338000DDFE031E08D10120FFF7ECFE0120FFF750
:10339000F9FE0120FFF7BCFEC0460C4B1800FFF7FA
:1033A00097FE03000F2BF8D93B00A02252001A8091
:1033B0003B0000229A703B0000225A603B0018003C
:1033C0000AF046FEC046BD4602B080BD001800604F
:1033D00080B500AF0820FFF785FE0420FFF782FECE
:1033E00004F01FFCC046BD4680BD80B500AF72B67C
:1033F000C046FEE780B584B000AF7860074B196D1A
:10340000064B7A680A431A65044B1B6D7A681340B1
:10341000FB60FB68C046BD4604B080BD000040486C
:1034200080B584B000AF7860074B596D064B7A6861
:103430000A435A65044B5B6D7A681340FB60FB6876
:10344000C046BD4604B080BD0000404880B584B091
:1034500000AF7860074B996D064B7A680A439A650E
:10346000044B9B6D7A681340FB60FB68C046BD4609
:1034700004B080BD0000404880B584B000AF7860E3
:10348000074B196E064B7A680A431A66044B1B6E8B
:103490007A681340FB60FB68C046BD4604B080BD3F
:1034A0000000404880B582B000AF7860064B1B6ECC
:1034B0007A6813407A689A4201D1012300E0002320
:1034C0001800BD4602B080BD0000404880B582B003
:1034D00000AF7860044B196C034B7A680A431A6496
:1034E000C046BD4602B080BD0000404880B582B0F5
:1034F00000AF7860054B1A6C7B68D943034B0A40D8
:103500001A64C046BD4602B080BDC04600004048B7
:1035100080B500AF00F034F980235B001800FFF79E
:103520007FFFC046BD4680BD90B58FB000AF7860CC
:103530002423FB18180014231A00002124F0F2F9A8
:103540000C243B19180018231A00002124F0EAF972
:103550007B681B68574A934252D13B1910221A606C
:103560003B190022DA603B1918000CF00DFE031E17
:1035700001D0FFF73AFF80235B001800FFF766FFDA
:103580000820FFF737FF24243B1908221A603B1953
:1035900002225A603B1900229A603B190022DA602D
:1035A0003B1901221A613B19434A1900100008F027
:1035B000F1FF21007B1880221A607B1802225A60DA
:1035C0007B1800229A607B180022DA607B180322A5
:1035D0001A617B18384A1900100008F0DBFF8821B7
:1035E000012009F099FD8821012009F0FDFD00224C
:1035F0000121092008F0BCFD092008F0CEFD54E0AF
:103600007B681B682D4A93424FD18023DB00180052
:10361000FFF71CFF0820FFF7EDFE0420FFF7EAFE8E
:1036200024243B1901221A603B1902225A603B19DB
:1036300000229A603B190022DA603B1900221A61CD
:103640003B191D4A1900100008F0A4FF21007B1847
:1036500002221A607B1802225A607B1800229A60AC
:103660007B180022DA607B1802221A617A189023F4
:10367000DB051100180008F08DFF0121012009F081
:103680004BFD0221002009F047FD0121012009F036
:10369000ABFD0221002009F0A7FD00220121082036
:1036A00008F066FD082008F078FDC046BD460FB062
:1036B00090BDC0460050004100001048004000414D
:1036C00080B582B000AF78607B681B68094A93427E
:1036D0000CD180235B021800FFF78CFE0022012131
:1036E0000D2008F045FD0D2008F057FDC046BD46F1
:1036F00002B080BD0000304890B589B000AF78605E
:1037000008243B19180018231A00002124F00AF994
:103710007B681A68C023DB059A422DD13B19012230
:103720001A603B1904221A613B1918000CF02CFD99
:10373000031E01D0FFF759FE0120FFF7B3FE031E61
:1037400008D10120FFF7C2FE0120FFF7CFFE0120C4
:10375000FFF792FE04F065FA00220021122008F023
:1037600007FD122008F019FD00220021192008F0A1
:10377000FFFC192008F011FDC046BD4609B090BD00
:1037800080B500AF0F21002009F08CFCF0231B0155
:103790001900002009F0EEFC064B1900012009F089
:1037A000E9FC054B1900012009F07CFCC046BD4630
:1037B00080BDC046C930000036C0000080B582B070
:1037C00000AF78607B68DB6920221340202B01D199
:1037D000012300E000231800BD4602B080BD80B583
:1037E00082B000AF78607B685B6ADBB21800BD46D0
:1037F00002B080BD80B500AFFEE780B500AFFEE748
:1038000080B500AFC046BD4680BD80B500AFC046A4
:10381000BD4680BD80B500AF08F0BCFBC046BD46CC
:1038200080BD000080B582B000AF0C4B1800FFF7E0
:10383000C5FF0300012B0CD1084B1800FFF7CFFF89
:1038400003001A00FB1D1A70FB1D01211800FFF771
:1038500067FAC046BD4602B080BDC0460040004188
:1038600080B500AF034B18000DF00CF8C046BD4604
:1038700080BDC0461403002080B500AF034B180084
:1038800009F0E4F9C046BD4680BDC046E003002013
:1038900080B500AF0BF0A2FFC046BD4680BD80B52D
:1038A00000AF0BF0A4FFC046BD4680BD80B500AFA1
:1038B0000AF006FAC046BD4680BD80B500AF0AF0EA
:1038C00020FAC046BD4680BD80B500AF9023DB0521
:1038D0000121180007F0F6FFC046BD4680BD00007C
:1038E00080B500AF074B2021180007F0EBFF8023C5
:1038F000DB01044A1900100007F0E4FFC046BD4692
:1039000080BDC0460000104880B500AF01231800FC
:10391000BD4680BD80B582B000AF7860396024F0CC
:103920005BF8030016221A6001235B421800BD46B3
:1039300002B080BD80B582B000AF786001235A42EA
:103940007B6811001800FFF7E5FFFEE780B586B041
:1039500000AFF860B9607A6000237B610AE000E0A4
:1039600000BF0100BB685A1CBA60CAB21A707B69FA
:1039700001337B617A697B689A42F0DB7B681800CF
:10398000BD4606B080BD80B586B000AFF860B960B6
:103990007A6000237B6109E0BB685A1CBA601B781F
:1039A000180008F017F87B6901337B617A697B683E
:1039B0009A42F1DB7B681800BD4606B080BD80B539
:1039C00082B000AF786001235B421800BD4602B0B0
:1039D00080BD80B582B000AF786039603B688022DE
:1039E00092015A6000231800BD4602B080BD80B528
:1039F00082B000AF786001231800BD4602B080BDE0
:103A000080B584B000AFF860B9607A600023180018
:103A1000BD4604B080BD000080B586B000AF7860C0
:103A2000144A154BD31A7B617B693B61134B1B68AE
:103A3000002B02D1114B124A1A60104B1A687B6896
:103A4000D3183A699A4207D223F0C6FF03000C222A
:103A50001A6001235B4209E0084B1B68FB60074BBF
:103A60001A687B68D218054B1A60FB681800BD46BF
:103A700006B080BD00000120000C0000EC03002017
:103A8000003B002080B500AFBFF34F8FC046044B12
:103A9000044ADA60BFF34F8FC046C046FDE7C04618
:103AA00000ED00E00400FA0580B500AF02F0B4F8C4
:103AB00006F006FE0300013301D1FFF796FCC04675
:103AC000BD4680BDF0B599B004AF4F23FB1800226E
:103AD0001A703C23FB18180006231A00002123F05B
:103AE00021FF3B23FB1806221A703823FB18002203
:103AF0001A803A1DAC4B1000190034231A0023F031
:103B000088FF4E257C193B1D18000FF061FC030057
:103B100023707B191B78002B08D07B191A78A34BD4
:103B20001100180023F0B2FCFFF75FFC4E257C1952
:103B3000182100200FF01EF9030023702A00BB1883
:103B40001B78002B07D0BB181A78994B110018006E
:103B500023F09CFC03E0974B180023F007FD4E2553
:103B60007C194A23FB181900012006F09DFF030071
:103B700023707B191B78002B07D07B191A788E4B8A
:103B80001100180023F082FC03E08C4B180023F096
:103B9000EDFC4D217B1800221A707B187A181278E0
:103BA00001210A431A704E257C194F23FB181B78FC
:103BB000012118000EF034FF030023707B191B78DD
:103BC000002B07D07B191A787D4B1100180023F0C9
:103BD0005DFC03E07B4B180023F0C8FC4E26BC19AB
:103BE0004623FD184823FA184F23FB1819784D2354
:103BF000FB1818784423FB1800932B0006F0EEFD09
:103C000003002370BC193C257A193B23FB181900CB
:103C100080200FF0ABF80300237028003B185B797D
:103C20001C003B181B791D003B18DB781E003B185D
:103C30009B781A003B185B7819003B181B78624888
:103C400002930191009233002A00210023F01EFC10
:103C50004E26BC195D4B1A001321002006F030FEE1
:103C600003002370BB191B78002B07D0BB191A78EF
:103C7000574B1100180023F009FC03E0554B1800C6
:103C800023F074FC4E257C193823FB181A000221FE
:103C9000002006F03BFE030023707B191B78002BED
:103CA00007D07B191A784C4B1100180023F0EEFB5B
:103CB00003E04A4B180023F059FC494B01221A70CB
:103CC000474B1B784E257C1918000EF0B7FA0300FD
:103CD00023707B191B78002B07D07B191A78414B76
:103CE0001100180023F0D2FB03E03F4B180023F033
:103CF0003DFC3B4B01225A70394B0822DA70384B9D
:103D000010221A71364B01229A703C23FA18374B55
:103D10001C21180000F040FF314B9878304B597847
:103D20002F4BDB782E4A12794E26BC1900250295BE
:103D300001920093002301220EF090FA03002370F9
:103D4000BB191B78002B07D0BB191A78284B110020
:103D5000180023F09BFB03E0264B180023F006FC21
:103D60001F4B9B78002B17D04E257C1901200EF09D
:103D700081FE030023702A00BB181B78002B07D09C
:103D8000BB181A781C4B1100180023F07FFB03E0CE
:103D90001A4B180023F0EAFB194B180023F0E6FB3E
:103DA000C046BD4615B0F0BD20BA0610E8B50610F5
:103DB0000CB606104CB606107CB60610BCB6061043
:103DC000ECB6061020B7061040B70610D0C9061092
:103DD00084B70610C8B70610FCB7061040B8061026
:103DE000F003002074B80610B4B8061018130020B1
:103DF000E4B806102CB9061064B90610BCB9061058
:103E000004BA061080B500AF012101200EF01AFDA2
:103E1000C046BD4680BD80B500AF012003F0EDFE79
:103E20000FF0F1F9012003F0F2FEC046BD4680BD5F
:103E300080B500AF0AF004FAC046BD4680BD80B52B
:103E400000AF002102200EF0FDFCC046BD4680BD43
:103E500080B500AF06F0BAFBC046BD4680BD80B558
:103E600000AF012104200EF0EDFCC046BD4680BD30
:103E700080B500AFFFF7E3FFC046BD4680BD80B50B
:103E800082B000AF78607B6818001AF0EFF8FFF797
:103E9000D6FFFFF7E4FFC046BD4602B080BD80B547
:103EA00000AFFFF7AFFFC046BD4680BD90B583B001
:103EB00000AF314B1A00002101200EF09FFC2F4B68
:103EC0001A00002102200EF099FC2D4B1A0000214F
:103ED00004200EF093FCFFF7E7FDFFF7F3FD294BFD
:103EE00000229A73274B012252429A81264B1A00D4
:103EF000002140200EF082FC224B244A9A61214B83
:103F0000234A1A630A2023F0D1FA224B180023F027
:103F10002DFB01F0FBFD01F01FFA1F4B180023F0F1
:103F200025FB0A2023F0C2FAFC1D06200EF07AFFC2
:103F300003002370FB1D1B78002B07D0FB1D1A7894
:103F4000164B1100180023F0A1FA03E0144B1800DF
:103F500023F09CFA012000F08BFC124A124B110056
:103F600018000AF0C7FC074B402200219954C046B4
:103F7000BD4603B090BDC046173E0410313E04104C
:103F8000513E0410F0030020794B04103D4B041007
:103F9000614B041054BA06107CBA0610ACBA061075
:103FA000F0BA061060EA000000040020F0B599B0F5
:103FB00004AF78604B23FB1886221A707B681B784D
:103FC000042B04D07B681B78822B00D001E37B6834
:103FD00001337B647B681B78042B03D17B6C023339
:103FE000FB6405E07B6801333B643B6C0333FB649B
:103FF0007B6C1B78FF2B00D19CE100DDE0E23E2BC7
:1040000057D000DDDCE2052B03D0102B00D1CEE22F
:10401000D6E27B6C0233BB60BB685A789B781B028C
:1040200013439AB2EB4B9B899A4218D1E94B012278
:1040300052429A81E74B00229A73E74B180023F013
:1040400095FABB685A789B781B0213439BB2190000
:10405000BB68DB781A00E14B180023F017FA00F078
:104060005DFDDF4B01221A70BB685A789B781B02FA
:1040700013439AB2DA4B5A80D94B180001F028FD4D
:10408000D84B01221A70BB685A789B781B021343E5
:104090009AB2D44B5A80D34B180001F041F9012059
:1040A00000F0E6FBD04AD14B110018000AF022FCC8
:1040B00092E27B6C02333B623B6A1B780C2B00D193
:1040C000D0E000DD2CE10A2B00D1D1E000DD27E1BA
:1040D000012B00D1F8E0032B00D021E13B6A013332
:1040E0007B61C34B180023F041FA7B69DA781B79B6
:1040F0001B0213439BB21800FEF76AFB0022BD4B64
:10410000FDF718FC02000B0010001900FEF724FB5D
:1041100006007B69DA781B791B0213439BB21800F7
:10412000FEF756FB0022B34BFDF704FC02000B0028
:104130001000190000220023FCF742FA031E3DD0B4
:104140007B69DA781B791B0213439BB21800FEF7D8
:104150003FFB0022A74BFDF7EDFB02000B00140014
:104160001D007B69DA781B791B0213439BB2180090
:10417000FEF72EFB00229F4BFDF7DCFB02000B003D
:1041800010001900FEF7E8FA03001800FEF720FB04
:1041900002000B0020002900FDF7B2FE02000B0018
:1041A000100019000022944BFDF7C4FB02000B0025
:1041B00010001900FEF7D0FA02003AE07B69DA78C5
:1041C0001B791B0213439BB21800FEF701FB002270
:1041D000884BFDF7AFFB02000B0010001900FEF743
:1041E000BBFA03001800FEF7F3FA04000D007B6928
:1041F000DA781B791B0213439BB21800FEF7E8FA2A
:1042000000227C4BFDF796FB02000B0020002900EA
:10421000FDF776FE02000B00100019000022764B1D
:10422000FDF788FB02000B0010001900FEF794FA5E
:1042300002007B6959799B791B020B439BB21C00DE
:104240007B69D9791B7A1B020B439BB219000B00C7
:104250009B005B185B00694800932300310023F04A
:1042600015F966E03B6A0133FB6100F057FC60E042
:104270003B6A0133BB61BB691C78BB695A789B7888
:104280001B0213439DB2BB691E79BB6905339C4673
:10429000BB69DA7D1B7E1B0213439AB2BB69597E50
:1042A0009B7E1B020B4399B2BB69D87E1B7F1B020E
:1042B00003439BB2029301910092634632002900AE
:1042C000200000F0AFF934E03B6A01333B613B6909
:1042D0001C783B695A789B781B0213439DB23B695B
:1042E0001E793B6905339C463B69DA7A1B7B1B02CE
:1042F00013439AB23B69597B9B7B1B020B4399B2D8
:104300003B69D87B1B7C1B0203439BB20293019148
:104310000092634632002900200000F083F908E093
:104320003B6A1B781A00364B1100180023F0AEF8D8
:10433000C04651E1FB6CFB63FB6B1A785B781B0298
:1043400013439BB22F4A934200D1F0E02D4A93428F
:1043500000DD1EE18022120193421CD08022120156
:10436000934200DD15E1042B21D000DA11E1264A49
:10437000934200DD0DE18022D200934200DC08E18F
:10438000224A94466344092B00D902E19A00204B4B
:10439000D3181B689F46FB6B02333B6306E11D4B42
:1043A000180023F0E3F8FB6B0233BB62FEE0012050
:1043B00007F08EF9184B18000AF0ECFA164B05219D
:1043C00018000AF097FAF1E0144B180023F0CEF829
:1043D000ECE0C046F003002028BB061054BB0610DA
:1043E000380400203C04002060EA000000040020A3
:1043F00094BB06100000F43F00005940C8BB0610F3
:1044000038BC0610190C00000A040000FFFBFFFF77
:10441000E4C9061054BC0610180400207CBC061029
:104420006F4B180023F0A2F86E4B9B894B257C192B
:104430006D4A110018000DF040FF030023707B1936
:104440001B78002B07D07B191A78684B11001800D5
:1044500023F01CF8AAE0664B180023F087F8A5E0CB
:10446000644B180023F082F8FB6B02339A78D978FA
:1044700009020A43197909040A435B791B061343AD
:104480001A005D4B1100180023F000F8FB6B02339B
:104490009A78D97809020A43197909040A435B79A1
:1044A0001B0613431A00554B1100180022F0EEFFB3
:1044B0002F217B1801221A704A4B9A894B257C19AF
:1044C0007B181B78190010000DF00AFF0300237001
:1044D0007B191B78002B07D07B191A78484B1100E9
:1044E000180022F0D3FF61E0464B180023F03EF89D
:1044F0005CE0454B180023F039F8FB6B02337B621C
:104500007B6A9B78002B0AD07B6A9B7819007B6AB8
:10451000DB781A003D4B180022F0B8FF03E03C4B5B
:10452000180023F023F80A2022F0C0FF3EE0394BA8
:10453000180023F01BF8FB6B0233BB6337243B19D5
:1045400008221A70BB6B1A795B791B0213439BB26A
:104550001A00314B1100180022F098FFBB6B1A783B
:104560005B781B02134398B2BB6B9A78DB781B0213
:10457000134399B2BB6B1A795B791B0213439AB24E
:104580003B191B7800240194002400940DF029FFAE
:104590000CE0FB6B1A785B781B0213439BB21A008A
:1045A0001E4B1100180022F071FFC04614E07B6C16
:1045B0000233FB60FB681B78032B0CD8FFF762FA11
:1045C0007B6C1B781A00164B1100180022F05EFF5E
:1045D00002E0C04600E0C046BD4615B0F0BDC04692
:1045E000ACBC0610F003002007B20100D0BC0610DE
:1045F00004BD061028BD06105CBD061078BD06106F
:1046000090BD0610DCBD06101CBE061048BE06108C
:1046100088BE0610A0BE0610C4BE0610D4BE06108A
:10462000ECBE0610F0B587B004AF0400080011001E
:104630003B60FB1D221C1A703B1D021C1A80BB1D17
:104640000A1C1A70FB1D1B78002B0AD0FB1D1A7860
:104650007D4B1100180022F019FF7C4B00229A7349
:10466000EEE03B1D1A887A4B1100180022F00EFF75
:104670003B6805331B781C003B6804331B781D0026
:104680003B6803331B781E003B6802331B781A001B
:104690003B6801331B7819003B681B786D48029317
:1046A0000191009233002A00210022F0EFFE202425
:1046B0003B191B881800FEF78BF80022664BFDF7AC
:1046C00039F902000B0010001900FEF745F806004A
:1046D0003B191B881800FEF77BF800225E4BFDF7A4
:1046E00029F902000B001000190000220023FBF73B
:1046F00067FF031E36D03B191B881800FEF768F8C9
:104700000022554BFDF716F902000B0014001D00A6
:104710002023FB181B881800FEF75AF800224E4B86
:10472000FDF708F902000B0010001900FEF714F85D
:1047300003001800FEF74CF802000B0020002900CF
:10474000FDF7DEFB02000B00100019000022434BB6
:10475000FDF7F0F802000B0010001900FDF7FCFF58
:10476000020034E02023FB181B881800FEF730F805
:104770000022394BFDF7DEF802000B001000190093
:10478000FDF7EAFF03001800FEF722F804000D0011
:104790002023FB181B881800FEF71AF800222E4B66
:1047A000FDF7C8F802000B0020002900FDF7A8FB68
:1047B00002000B00100019000022284BFDF7BAF888
:1047C00002000B0010001900FDF7C6FF02002423B1
:1047D000FB181C882823FB1819880B009B005B180A
:1047E0005B001F4800932300310022F04FFE174B5F
:1047F0009B7B012B03D1154B03229A7302E0134BD1
:1048000002229A73114B3A1D12889A81154B00228D
:104810001A70144B3A1D12885A80124B180001F07E
:1048200057F9114B00221A700F4B3A1D12885A800B
:104830000D4B180000F074FD0C4B18000AF0AAF89C
:10484000BD4603B0F0BDC04600BF0610F003002017
:1048500038BF06107CBF06100000F43F000059402E
:10486000C0BF0610380400203C04002000040020D3
:10487000F0B595B00CAF0200FB1D1A708023FB61F0
:10488000A023BB61FB1D1B78052B58D89A00944BC5
:10489000D3181B689F468023FB61A023BB610423C0
:1048A0007B614DE0C823DB00FB61FA231B01BB6188
:1048B00005237B6144E000237B6141E0C8239B002A
:1048C000FB61C8239B00BB6100237B61FA235B0073
:1048D0003B61844B40229B5C002B08D0814B4022E3
:1048E000002199542823FB612823BB6128E07D4BDC
:1048F000402201219954C8239B00FB61C8239B00DF
:10490000BB611DE0774B9B890F257C191321180093
:104910000DF07EFC030023707B191B78002B07D061
:104920007B191A78704B1100180022F0AFFD07E0D8
:104930006E4B180022F01AFE00F0F8F800E0C046B6
:10494000FB1D1B78062B00D1C2E000DDC2E0042B6A
:1049500000D19AE000DDBDE0012B02DC002B03DA80
:10496000B8E0022B73D0B5E00823FB18180006232B
:104970001A00002122F0D6FF0F257C19FA690023C6
:104980000A9300230993012308930023079301232B
:10499000069300230593002304930023039300232D
:1049A000029307230193BB69009313001322022192
:1049B00000200EF08BF8030023707B191B78002B6E
:1049C00007D07B191A784A4B1100180022F05EFDBF
:1049D00007E07B69DAB2434B9A73464B180022F02A
:1049E000C5FD0F257C19444B1C22032100200EF02D
:1049F000A2F8030023707B191B78002B07D07B19CA
:104A00001A783E4B1100180022F040FD03E03C4BA9
:104A1000180022F0ABFD0F257C190823FB181A00A3
:104A2000012101200EF08BF8030023707B191B7805
:104A3000002B07D07B191A78324B1100180022F096
:104A400025FD48E0304B180022F090FD43E00F2593
:104A50007C190022002100200EF071F80300237061
:104A60007B191B78002B07D07B191A78274B110074
:104A7000180022F00BFD2EE07B69DAB2194B9A7315
:104A8000234B180022F072FD25E0164B9889FB6934
:104A900099B2BB699AB27B699DB23B699BB20F2602
:104AA000BC1900932B000DF0DBFC03002370BB1935
:104AB0001B78002B07D0BB191A78164B1100180071
:104AC00022F0E4FC07E0144B180022F04FFD02E056
:104AD000C04600E0C046C046BD4609B0F0BDC04675
:104AE0000CCA0610F0030020DCC0061008C1061036
:104AF00090C10610D4C106101813002008C2061079
:104B000044C2061070C20610ACC20610DCC2061009
:104B100008C306102CC3061070C3061080B500AF82
:104B200001200DF0BBFEC046BD4680BD80B500AF84
:104B300001200DF0D1FEC046BD4680BD80B582B0DB
:104B400000AF7860054B180022F010FD00214020D6
:104B50000DF078FEC046BD4602B080BDACC3061065
:104B600080B582B000AF7860012006F0CFFDC0466E
:104B7000BD4602B080BD000080B500AF012006F048
:104B8000C5FD0220FFF774FE024B00229A73C04657
:104B9000BD4680BDF0030020B0B586B000AFF86020
:104BA0007A600B23FB180A1C1A701623FB180022CC
:104BB0001A8015E116217B181B88FA68D218152374
:104BC000FB1812781A707B181B880133FA68D21808
:104BD00014217B1812781A707B181B78FF2B00D1D8
:104BE0007CE000DDE9E00A2B00D1E8E000DDE4E054
:104BF000012B00D1E5E0092B00D0DEE016203B18A8
:104C00001A8815243B191B78D3181A00FB689B18C7
:104C10001B78582B00D0D6E03B181A883B191B781C
:104C2000D318013BFA68D3181B78582B00D0CAE080
:104C30007B681A7813257B1912091A707B681A7819
:104C40001223FB180F210A401A7029007B181B78C9
:104C5000092B0DD93B181A883B191B78D318013B37
:104C6000FA68D3187A1812783732D2B21A700FE075
:104C70001623FB181A881523FB181B78D318013B41
:104C8000FA68D3181322BA1812783032D2B21A70D6
:104C900012217B181B78092B0FD91623FB181A88B1
:104CA0001523FB181B78D3181A00FB689B187A1879
:104CB00012783732D2B21A7085E01623FB181A88A0
:104CC0001523FB181B78D3181A00FB689B181222B7
:104CD000BA1812783032D2B21A7074E016203B182B
:104CE0001B880233FA68D31830221A703B181B88CD
:104CF0000333FA68D31800221A703B181B88043358
:104D0000FA68D31802221A703B181B880533FA6818
:104D1000D3188D221A703B181B880633FA68D318F3
:104D200083221A703B181B880733FA68D3180022B5
:104D30001A703B181B880833FA68D31800221A70BF
:104D40003B181B880933FA68D31800221A707B6855
:104D50005A1D3B181B880A33F968CB1812781A7051
:104D60007B681A1D3B181B880B33F968CB18127827
:104D70001A707B68DA1C3B181B880C33F968CB1857
:104D800012781A707B689A1C3B181B880D33F968DF
:104D9000CB1812781A707B685A1C3B181B880E338C
:104DA000F968CB1812781A703B181B880F33FA6811
:104DB000D3187A6812781A7006E0C04604E0C0463C
:104DC00002E0C04600E0C0461523FB181B789AB2EB
:104DD00016217B181B88D3189AB27B1801321A80CF
:104DE0000B23FB181B789BB21622BA1812889A4222
:104DF00000D2DFE6C046C046BD4606B0B0BD0000EA
:104E000080B500AF0C4B9B7B002B09D10120FFF735
:104E10002FFD0A4A0A4B1100180009F06BFD08E04B
:104E2000054B9B7B022B04D1002180200DF00AFD55
:104E3000C046C046BD4680BDF003002060EA0000C9
:104E40000004002090B583B000AFFB1D12221A7041
:104E5000134B9B7B022B15D0FC1D0DF057FA030062
:104E60002370FB1D1B78002B07D0FB1D1A780D4B00
:104E70001100180022F00AFB0EE00B4B180022F084
:104E800075FB09E00120FFF7F3FC084A084B11000D
:104E9000180009F02FFDC046BD4603B090BDC046C6
:104EA000F0030020BCC30610F4C3061060EA000043
:104EB0000004002080B500AF054B9B7B022B03D183
:104EC0000420FFF7D5FCC046C046BD4680BDC046A5
:104ED000F003002090B58DB000AF78602F23FB1851
:104EE00000221A707B681A785B781B0213439BB20E
:104EF000544A94466344192B00D997E09A00524BC8
:104F0000D3181B689F467B680233FB61FB691A78E4
:104F10005B781B0213439AB208217B189A81FB69C4
:104F20001A795B791B0213439AB27B18DA81FB6909
:104F30009A79DB791B0213439BB2DAB27B181A729F
:104F4000FB6908331A007B185A60FB691A795B7990
:104F50001B0213439BB21A003C4B9B8802339A42BC
:104F60001CD12F23FB1801221A70FB691B7A002B1E
:104F700002D0012B09D03CE008217B1802221A70D4
:104F80007B18180000F06CF933E008217B1801222F
:104F90001A707B18180000F063F92AE0FB691A798F
:104FA0005B791B0213439BB21A00284B5B880133C9
:104FB0009A423DD12F23FB1801221A7008243B1975
:104FC00000221A70224B180022F0D0FAFB699A795D
:104FD000DB791B0213439BB2DAB23B191A72FB69ED
:104FE00008331A003B195A603B19180000F038F9D1
:104FF0001EE01DE07B680233BB62BB6A5A799B7975
:105000001B0213439BB21A00104B5B8801339A4278
:1050100010D12F23FB1801221A700BE07B6802339A
:105020007B6208E07B6802333B6204E0C04602E03A
:10503000C04600E0C0462F23FB181B781800BD4671
:105040000DB090BDFFF3FFFFA0CA06104004002082
:1050500020C4061090B583B000AFFB1D12221A7059
:105060001F4B18000CF012FDFC1D1E4B18000DF01C
:1050700055F903002370FB1D1B78002B07D0FB1D87
:105080001A78194B1100180022F000FA03E0174BB0
:10509000180022F06BFA134B18000DF04CF90300C6
:1050A0001A00134B1A80134B18000DF064F903001B
:1050B0001A000F4B5A80104B18000DF05CF90300DA
:1050C0001A000B4B9A80FB1D1B78002B04D00B4B56
:1050D000180022F04BFAC046C046BD4603B090BD52
:1050E000D54E041078CA061048C406108CC40610A9
:1050F0004004002030CA061054CA0610C0C406106E
:10510000F0B587B002AF39601100FB1D021C1A70A8
:105110003B1D0A1C1A800F23FB1812221A70FB1D5C
:105120001B78012B36D13B6819683B681B795BB251
:10513000002B03DB3B681B791A0000E08022194B2F
:10514000180022F066FC184B9B88013399B23B682B
:105150001B791D003B681B680F26BC193A1D10887F
:105160000193009500230A0004210DF011F90300BA
:105170002370BB191B78002B07D0BB191A780B4B77
:105180001100180022F082F905E0094B180022F006
:10519000EDF900E0C0460F23FB181B781800BD4650
:1051A00005B0F0BDCC04002040040020E0C406108F
:1051B00020C5061080B584B000AF78600A00BB1C23
:1051C0001A800E23FB18012252421A800C23FB186E
:1051D00000221A8033E00C23FB181B887A68D3184E
:1051E0001B7819000E22BB18BA1812884A401A8080
:1051F0000823BB601AE00E217B181B880122134094
:105200000BD07B187A18128852081A807B187A18EB
:10521000128812494A401A8005E00E22BB18BA18BB
:10522000128852081A80BB68013BBB60BB68002B28
:10523000E1D10C217B181A887B1801321A800C23CB
:10524000FA18BB1C12881B889A42C4D30E23FB1881
:105250001B881800BD4604B080BDC04601A0FFFFFA
:1052600090B585B000AF78607B681B78022B44D086
:1052700047DC002B02D0012B3BD042E0234B18002F
:1052800022F074F90F23FB1800221A701BE07B68D0
:105290005A680F243B191B78D3181B781A001C4B33
:1052A0001100180022F0F2F87B685A683B191B784D
:1052B000D2183B191B781178164AD1543B191A7829
:1052C0003B1901321A707B681B7A0F22BA181278C8
:1052D0009A42DCD30A2022F0E9F87B681B7A1A0094
:1052E0000D4B1A8080239B00002118000DF0AAFAB4
:1052F00008E00A4B01221A7004E0084B00221A70E1
:1053000000E0C046C046BD4605B090BD4CC5061085
:1053100068C506104C0500204C06002050060020F1
:1053200080B582B000AF78607B681B78002B02D01C
:10533000012B05D009E07B685A88064B5A8004E0AF
:10534000044B012252425A80C046C046BD4602B0BC
:1053500080BDC0465006002080B500AF0B4B012237
:1053600052425A80FFF776FE094A80239B000021B3
:1053700018000DF043FA074A80235B000021180053
:105380000DF03CFAC046BD4680BDC0465006002028
:105390009953041049560410B0B5C6B000AF9A4BEB
:1053A0001A8887256D007C19984B11001800FFF7AB
:1053B00001FF03002380944B1B881A007B191B8874
:1053C000D9B2924B99547B191B881B0A9AB28E4B07
:1053D0001B880133D1B28D4AD1548B4B1B880233C9
:1053E0009AB2894B1A808A4B180022F04FF800239A
:1053F0008A225200BA18136011E0844A8A24640099
:105400003B191B68D3181B781A00824B1100180037
:1054100022F03CF83B191B6801333A1913607A4BB0
:105420001B881A008A235B00FB181B689342E4DB8D
:105430000A2022F03BF8744B1A88FA239B00734928
:1054400075480BF095F8031E04D1744B180022F038
:105450008DF803E0724B180022F088F86B4B1B7933
:105460001BB21B021AB2694B5B791BB213431AB20F
:10547000862149007B181A807B181B88DB189AB29A
:1054800085235B00FB1805321A807B181B88002BD4
:1054900003D07B181B88782B09D986235B00FB1867
:1054A0001A88604B1100180021F0F0FFA9E05E4B54
:1054B0008C2252009B18DB19180080235B001A0015
:1054C000002122F02FFAFA239C0085235B00FB18B1
:1054D0001A88391D504823000BF0EEF8031E00D047
:1054E0008BE0524B180021F0D1FF0023882252009C
:1054F000BA18136015E04C4B8C2252009B18DA1935
:10550000882464003B191B68D3181B781A00414B90
:105510001100180021F0BAFF3B191B6801333A193A
:105520001360852464003B191B8888225200BA1836
:1055300012689A42DFDB0A2021F0B8FF20003B18F6
:105540001B88013B384A8C2464001219D219D35CA1
:105550001BB21B021AB23B181B88023B32490919C5
:10556000C919CB5C1BB213431AB284256D007B1999
:105570001A803B181B88023B9AB2FC1DFF343B1D6E
:1055800011001800FFF716FE030023807A19FB1D97
:10559000FF3312881B889A422AD1254B180021F02C
:1055A000E5FF862464003B191B885B00F72B1AD8A3
:1055B0003B191B885B001A003B1DD91C1D4B1800B2
:1055C00022F027FA1C4B1B4A1A603B191B88DBB2DE
:1055D000DB18DAB2184B1A7180235B000021180027
:1055E0000DF030F90DE0154B180021F0BFFF08E079
:1055F000134B180021F0BAFF03E0124B180021F002
:10560000B5FFBD4646B0B0BD4C0600204C0500209D
:1056100070C5061068C506101403002080C506106A
:1056200094C50610ACC50610ECFEFFFFC8C50610F9
:10563000DCC50610540600204C070020E4C5061007
:1056400004C6061010C6061090B583B000AF124B0A
:105650001B78012B16D1104B5B88104A934211D056
:105660000D4B5A88FC1D0E4B19000120FFF748FD19
:1056700003002370FB1D1A780A4B1100180021F05B
:1056800005FF04E0084B180021F070FFC046C0463B
:10569000BD4603B090BDC04650060020FFFF00008D
:1056A0004C0700202CC6061048C60610B0B590B0B6
:1056B00000AF78603F23FB1800221A707B681A78CD
:1056C0005B781B0213439BB2734A94466344192BC5
:1056D00000D9D2E09A00714BD3181B689F467B68B3
:1056E00002333B623B6A1A785B781B0213439AB21F
:1056F0000C217B189A813B6A1A795B791B02134350
:105700009AB27B18DA813B6A9A79DB791B021343E0
:105710009BB2DAB27B181A723B6A08331A007B1804
:105720005A603B6A1A795B791B0213439BB21A00D9
:105730005B4B9B8802339A421CD13F23FB1801220A
:105740001A703B6A1B7A002B02D0012B09D03DE076
:105750000C217B1803221A707B18180000F058F9EE
:1057600034E00C217B1802221A707B18180000F01C
:105770004FF92BE03B6A1A795B791B0213439BB20A
:105780001A00474B5B8801339A4200D077E03F23F1
:10579000FB1801221A700C243B1901221A70414B8C
:1057A000180021F0E3FE3B6A9A79DB791B02134370
:1057B0009BB2DAB23B191A723B6A08331A003B19E2
:1057C0005A603B19180000F023F958E057E07B6855
:1057D00002337B637B6B1A795B791B0213439BB2A9
:1057E0001A002F4B5B8801339A424AD13F23FB18A2
:1057F00001221A7045E07B680233BB63BB6B5A79A8
:105800009B791B0213439BB21A00254B5B88013323
:105810009A4238D13F23FB1801221A7033E07B688B
:1058200002333B6330E07B6802337B622CE02F2144
:105830007B1881221A707B680233BB62BB6A1A78BC
:105840005B781B0213439BB20D007C1804211800E7
:105850000CF0F0FD030023707B191B78002B07D0A0
:105860007B191A78104B1100180021F00FFE0BE085
:105870000E4B180021F07AFE06E0C04604E0C04658
:1058800002E0C04600E0C0463F23FB181B7818002A
:10589000BD4610B0B0BDC046FFF3FFFF84CB06107D
:1058A0005407002074C606109CC60610DCC60610FD
:1058B00090B583B000AFFB1D12221A701F4B180069
:1058C0000CF0E4F8FC1D1E4B18000CF027FD030043
:1058D0002370FB1D1B78002B07D0FB1D1A78194B7A
:1058E0001100180021F0D2FD03E0174B180021F041
:1058F0003DFE134B18000CF01EFD03001A00134B65
:105900001A80134B18000CF036FD03001A000F4BE1
:105910005A80104B18000CF02EFD03001A000B4BA0
:105920009A80FB1D1B78002B04D00B4B180021F034
:105930001DFEC046C046BD4603B090BDAD56041026
:105940005CCB06100CC7061058C706105407002081
:1059500014CB061038CB061094C70610F0B587B0EC
:1059600002AF39601100FB1D021C1A703B1D0A1C9E
:105970001A800F23FB1812221A70FB1D1B78012BB3
:1059800036D13B6819683B681B791A1CD3B2022BCD
:1059900001D902231A1CD3B21A00194B180022F0A5
:1059A00038F8184B9B88013399B23B681B791D006E
:1059B0003B681B680F26BC193A1D1088019300959F
:1059C00000230A0004210CF0E3FC03002370BB1940
:1059D0001B78002B07D0BB191A780B4B110018004D
:1059E00021F054FD05E0094B180021F0BFFD00E057
:1059F000C0460F23FB181B781800BD4605B0F0BD4C
:105A00006407002054070020BCC7061000C8061019
:105A100080B582B000AF78607B681B78032B35D0EF
:105A200040DC022B26D03DDC002B3DD0012B00D0EA
:105A300038E07B685B6801331B78012B09D10020BB
:105A400005F046FE1C4B180021F090FD1B4B012277
:105A50009A707B685B6801331B78002B26D100208D
:105A600005F054FE164B180021F080FD134B002268
:105A70009A701BE0114B01221A70124B180021F092
:105A800075FD114B180021F001FD10E00B4B0022B9
:105A90001A700E4B180021F069FD0B4B180021F015
:105AA000F5FC04E0C04602E0C04600E0C046C04647
:105AB000BD4602B080BDC04630C806106807002051
:105AC00054C806107CC80610B0C80610B4C806102A
:105AD00080B582B000AF78607B681B78002B02D065
